:100000000EC01DC01CC01BC01AC025C018C017C020
:1000100016C015C014C013C012C011C010C01124E6
:100020001FBECFE5D2E0DEBFCDBF20E0A0E6B0E04E
:1000300001C01D92AE36B207E1F757D0A9C0E0CF9C
:10004000811105C08FB7F894C3988FBF08958FB7FB
:10005000F894C39AFACF1F920F920FB60F92112401
:100060002F933F938F939F93AF93BF93809165009E
:1000700090916600A0916700B09168003091640093
:1000800026E0230F2D3768F129E8230F0396A11DE1
:10009000B11D209364008093650090936600A09347
:1000A0006700B09368008091600090916100A0911A
:1000B0006200B09163000196A11DB11D80936000A4
:1000C00090936100A0936200B0936300BF91AF91E1
:1000D0009F918F913F912F910F900FBE0F901F9086
:1000E00018950296A11DB11DD4CF83E08ABD82E090
:1000F00083BF789489B7826089BF80E48CBD8FEF1D
:100100008DBD84EC80BF83E886B98FB7F894BB9A25
:100110008FBF80E095DF8FB7F894BC98C4988FBFED
:10012000B49930C02FB7F894809165009091660023
:10013000A0916700B09168002FBF40916900509175
:100140006A0060916B0070916C008C019D01041B32
:10015000150B260B370BB901A801483E534061052A
:100160007105F0F28093690090936A00A0936B0090
:10017000B0936C0080916D0091E0892780936D00B1
:100180005FDFCECF81E05CDF81E080936D00C8CF80
:04019000F894FFCF11
:00000001FF
